:020000040800F2
:100000000004002011030008130300081303000874
:100010001303000813030008130300081303000868
:100020001303000813030008130300085186000897
:100030001303000813030008130300081303000848
:100040001303000813030008130300081303000838
:100050001303000813030008E9910008299200081F
:100060006D920008B1920008F5920008A59A000868
:10007000B99A0008CD9A0008E19A0008F59A00089C
:10008000099B00081D9B00081303000813030008C8
:100090001303000813030008130300083993000832
:1000A0003D950008519500085595000859950008A0
:1000B000F59E0008EDA1000801A20008059D0008BA
:1000C000119E00081303000813030008130300081F
:1000D00013030008130300081303000813030008A8
:1000E00021940008130300081303000813030008F9
:1000F00049A10008130300081303000813030008B4
:100100001303000813030008130300081303000877
:10011000130300081303000821A1000835A10008FB
:10012000319B0008459B0008599B00086D9B000807
:10013000819B000813030008130300081303000841
:100140001303000813030008130300081303000837
:100150001303000813030008130300081303000827
:100160001303000813030008130300084DA200083E
:100170001303000813030008130300081303000807
:1001800013030008130300081303000813030008F7
:1001900013030008130300081303000813030008E7
:0C01A000EDB90008D5010008B10100080D
:1001B00010B5054C237833B9044B13B10448AFF3A1
:1001C00000800123237010BD88140020000000006F
:1001D00044D3000808B5034B1BB103490348AFF3F0
:1001E000008008BD000000008C14002044D30008EB
:1001F00072B6394880F30888384880F3098838484F
:100200004EF60851CEF20001086040F20000CCF238
:1002100000004EF63471CEF200010860BFF34F8F3C
:10022000BFF36F8F40F20000C0F2F0004EF688512D
:10023000CEF200010860BFF34F8FBFF36F8F4FF016
:100240000000E1EE100A4EF63C71CEF200010860AB
:10025000062080F31488BFF36F8F07F0A7FE07F026
:100260001BFC4FF055301F491B4A91423CBF41F8DF
:10027000040BFAE71C49194A91423CBF41F8040BB0
:10028000FAE71A491A4A1B4B9A423EBF51F8040B2F
:1002900042F8040BF8E700201749184A91423CBF86
:1002A00041F8040BFAE707F085FE07F080FE144CD6
:1002B000144DAC4203DA54F8041B8847F9E707F001
:1002C000F9FB114C114DAC4203DA54F8041B88477A
:1002D000F9E707F06DBE000000040020000C0020CC
:1002E00000000008000000200004002044D30008A3
:1002F000000C00208414002088140020E425002035
:10030000A0010008A8010008A8010008AC0100082D
:100310006EE700F000F8FEE72DE9F04F2DED108AB2
:10032000C1F80CD0C3689D46BDEC108ABDE8F08FC3
:10033000002383F311882846A047002008F0C0F866
:1003400008F056F800DFFEE781F0004102E000BF50
:1003500083F0004330B54FEA41044FEA430594EA85
:10036000050F08BF90EA020F1FBF54EA000C55EAC0
:10037000020C7FEA645C7FEA655C00F0E2804FEA91
:100380005454D4EB5555B8BF6D420CDD2C4480EA73
:10039000020281EA030382EA000083EA010180EAA3
:1003A000020281EA0303362D88BF30BD11F0004FF1
:1003B0004FEA01314FF4801C4CEA113102D0404227
:1003C00061EB410113F0004F4FEA03334CEA133362
:1003D00002D0524263EB430394EA050F00F0A7807A
:1003E000A4F10104D5F1200E0DDB02FA0EFC22FA75
:1003F00005F2801841F1000103FA0EF2801843FA69
:1004000005F359410EE0A5F120050EF1200E012A59
:1004100003FA0EFC28BF4CF0020C43FA05F3C01897
:1004200051EBE37101F0004507D54FF0000EDCF110
:10043000000C7EEB00006EEB0101B1F5801F1BD3B9
:10044000B1F5001F0CD349085FEA30004FEA3C0CBD
:1004500004F101044FEA445212F5800F80F09A80B3
:10046000BCF1004F08BF5FEA500C50F1000041EBB7
:10047000045141EA050130BD5FEA4C0C404141EBBB
:10048000010111F4801FA4F10104E9D191F0000FE2
:1004900004BF01460020B1FA81F308BF2033A3F165
:1004A0000B03B3F120020CDA0C3208DD02F1140C5C
:1004B000C2F10C0201FA0CF021FA02F10CE002F197
:1004C0001402D8BFC2F1200C01FA02F120FA0CFC90
:1004D000DCBF41EA0C019040E41AA2BF01EB0451D9
:1004E000294330BD6FEA04041F3C1CDA0C340EDCD7
:1004F00004F11404C4F1200220FA04F001FA02F31A
:1005000040EA030021FA04F345EA030130BDC4F1D7
:100510000C04C4F1200220FA02F001FA04F340EACC
:100520000300294630BD21FA04F0294630BD94F07D
:10053000000F83F4801306BF81F480110134013D64
:100540004EE77FEA645C18BF7FEA655C29D094EAD5
:10055000050F08BF90EA020F05D054EA000C04BF53
:100560001946104630BD91EA030F1EBF002100203E
:1005700030BD5FEA545C05D14000494128BF41F0DD
:10058000004130BD14F580043CBF01F5801130BD41
:1005900001F0004545F0FE4141F470014FF00000CC
:1005A00030BD7FEA645C1ABF194610467FEA655C7D
:1005B0001CBF0B46024650EA013406BF52EA03351F
:1005C00091EA030F41F4002130BD00BF90F0000F0D
:1005D00004BF0021704730B54FF4806404F1320449
:1005E0004FF000054FF0000150E700BF90F0000F02
:1005F00004BF0021704730B54FF4806404F1320429
:1006000010F0004548BF40424FF000013EE700BFF8
:1006100042004FEAE2014FEA31014FEA02701FBF88
:1006200012F07F4393F07F4F81F06051704732F0BA
:100630007F4208BF704793F07F4F04BF41F4002111
:10064000704730B54FF4607401F0004521F000416F
:100650001CE700BF50EA010208BF704730B54FF0F9
:1006600000050AE050EA010208BF704730B511F0FA
:10067000004502D5404261EB41014FF4806404F132
:1006800032045FEA915C3FF4D8AE4FF003025FEAB8
:10069000DC0C18BF03325FEADC0C18BF033202EB3C
:1006A000DC02C2F1200300FA03FC20FA02F001FA96
:1006B00003FE40EA0E0021FA02F11444BDE600BF39
:1006C00070B54FF0FF0C4CF4E06C1CEA11541DBFE8
:1006D0001CEA135594EA0C0F95EA0C0F00F0DEF8B3
:1006E0002C4481EA030621EA4C5123EA4C5350EA98
:1006F000013518BF52EA033541F4801143F48013E9
:1007000038D0A0FB02CE4FF00005E1FB02E506F079
:100710000042E0FB03E54FF00006E1FB03569CF0CE
:10072000000F18BF4EF0010EA4F1FF04B6F5007FD4
:1007300064F5407404D25FEA4E0E6D4146EB060646
:1007400042EAC62141EA55514FEAC52040EA5E50CF
:100750004FEACE2EB4F1FD0C88BFBCF5E06F1ED879
:10076000BEF1004F08BF5FEA500E50F1000041EBB0
:10077000045170BD06F0004646EA010140EA02005D
:1007800081EA0301B4EB5C04C2BFD4EB0C0541EA7F
:10079000045170BD41F480114FF0000E013C00F394
:1007A000AB8014F1360FDEBF002001F0004170BDB8
:1007B000C4F10004203C35DA0C341BDC04F11404D1
:1007C000C4F1200500FA05F320FA04F001FA05F25D
:1007D00040EA020001F0004221F0004110EBD3702A
:1007E00021FA04F642EB06015EEA430E08BF20EA56
:1007F000D37070BDC4F10C04C4F1200500FA04F3F9
:1008000020FA05F001FA04F240EA020001F000418A
:1008100010EBD37041F100015EEA430E08BF20EAFD
:10082000D37070BDC4F1200500FA05F24EEA020E45
:1008300020FA04F301FA05F243EA020321FA04F074
:1008400001F0004121FA04F220EA020000EBD3702B
:100850005EEA430E08BF20EAD37070BD94F0000F2B
:100860000FD101F00046400041EB010111F4801F5F
:1008700008BF013CF7D041EA060195F0000F18BF10
:10088000704703F00046520043EB030313F4801F4C
:1008900008BF013DF7D043EA0603704794EA0C0F06
:1008A0000CEA135518BF95EA0C0F0CD050EA41061C
:1008B00018BF52EA4306D1D181EA030101F0004199
:1008C0004FF0000070BD50EA410606BF10461946C1
:1008D00052EA430619D094EA0C0F02D150EA0136CD
:1008E00013D195EA0C0F05D152EA03361CBF10460E
:1008F00019460AD181EA030101F0004141F0FE41AD
:1009000041F470014FF0000070BD41F0FE4141F430
:10091000780170BD70B54FF0FF0C4CF4E06C1CEA30
:1009200011541DBF1CEA135594EA0C0F95EA0C0FE5
:1009300000F0A7F8A4EB050481EA030E52EA0335A0
:100940004FEA013100F088804FEA03334FF08055C1
:1009500045EA131343EA12634FEA022245EA1115EE
:1009600045EA10654FEA00260EF000419D4208BF9F
:10097000964244F1FD0404F5407402D25B084FEA4C
:100980003202B61A65EB03055B084FEA32024FF4F8
:1009900080104FF4002CB6EB020E75EB030E22BF55
:1009A000B61A754640EA0C005B084FEA3202B6EB15
:1009B000020E75EB030E22BFB61A754640EA5C00C4
:1009C0005B084FEA3202B6EB020E75EB030E22BF54
:1009D000B61A754640EA9C005B084FEA3202B6EB55
:1009E000020E75EB030E22BFB61A754640EADC0014
:1009F00055EA060E18D04FEA051545EA16754FEA76
:100A000006164FEAC30343EA52734FEAC2025FEA93
:100A10001C1CC0D111F4801F0BD141EA00014FF022
:100A200000004FF0004CB6E711F4801F04BF0143F3
:100A30000020B4F1FD0C88BFBCF5E06F3FF6AFAE0F
:100A4000B5EB030C04BFB6EB020C5FEA500C50F19F
:100A5000000041EB045170BD0EF0004E4EEA113122
:100A600014EB5C04C2BFD4EB0C0541EA045170BD29
:100A700041F480114FF0000E013C90E645EA060E6D
:100A80008DE60CEA135594EA0C0F08BF95EA0C0F9B
:100A90003FF43BAF94EA0C0F0AD150EA01347FF4E3
:100AA00034AF95EA0C0F7FF425AF104619462CE7BA
:100AB00095EA0C0F06D152EA03353FF4FDAE10461D
:100AC000194622E750EA410618BF52EA43067FF46E
:100AD000C5AE50EA41047FF40DAF52EA43057FF4FE
:100AE000EBAE12E74FF0FF3C06E000BF4FF0010C09
:100AF00002E000BF4FF0010C4DF804CD4FEA410C6D
:100B00007FEA6C5C4FEA430C18BF7FEA6C5C1BD039
:100B100001B050EA410C0CBF52EA430C91EA030FBA
:100B200002BF90EA020F0020704710F1000F91EA17
:100B3000030F58BF994208BF90422CBFD8176FEAE5
:100B4000E37040F0010070474FEA410C7FEA6C5CB3
:100B500002D150EA013C07D14FEA430C7FEA6C5CBA
:100B6000D6D152EA033CD3D05DF8040B704700BFE6
:100B70008446104662468C461946634600E000BF34
:100B800001B5FFF7B7FF002848BF10F1000F01BD06
:100B90004DF808EDFFF7F4FF0CBF012000205DF8D1
:100BA00008FB00BF4DF808EDFFF7EAFF34BF012056
:100BB00000205DF808FB00BF4DF808EDFFF7E0FFEF
:100BC00094BF012000205DF808FB00BF4DF808ED40
:100BD000FFF7CEFF94BF012000205DF808FB00BFA7
:100BE0004DF808EDFFF7C4FF34BF012000205DF889
:100BF00008FB00BF4FEA410C7FEA6C5C02D150EA6F
:100C0000013C0AD14FEA430C7FEA6C5C02D152EA04
:100C1000033C02D14FF0000070474FF001007047D5
:100C20004FEA4102B2F1E04324BFB3F5001CDCF10E
:100C3000FE5C0DD901F0004C4FEAC0024CEA507046
:100C4000B2F1004F40EB830008BF20F00100704775
:100C500011F0804F21D113F13872BCBF01F0004078
:100C6000704741F480114FEA5252C2F11802C2F1AA
:100C7000200C10FA0CF320FA02F018BF40F001002B
:100C80004FEAC1234FEAD32303FA0CFC40EA0C00DD
:100C900023FA02F34FEA4303CCE77FEA625307D11A
:100CA00050EA01331EBF4FF0FE4040F44000704751
:100CB00001F0004040F0FE4040F40000704700BFEB
:100CC00053B94AB9002908BF00281CBF4FF0FF31B3
:100CD0004FF0FF3000F074B9ADF1080C6DE904CEAF
:100CE00000F006F8DDF804E0DDE9022304B0704707
:100CF0002DE9F047089E04468846002B40F0858089
:100D00008A42154648D9B2FA82F24AB1C2F12007A6
:100D100001FA02F320FA07F7954047EA03089440E6
:100D20004FEA154E230CB8FBFEF71FFA85FC0EFBAD
:100D3000178843EA084307FB0CF1994209D9EB18DD
:100D400007F1FF3080F0E380994240F2E080023FFB
:100D50002B445B1AA4B2B3FBFEF00EFB103344EA43
:100D6000034400FB0CFCA44509D92C1900F1FF3306
:100D700080F0CB80A44540F2C88002382C4440EA81
:100D80000740A4EB0C0400271EB1D4400023C6E9A1
:100D900000433946BDE8F087002A53D0B2FA82F208
:100DA000002A40F0B680491B4FEA154E1FFA85F81D
:100DB0000127B1FBFEFC230C0EFB1C1143EA01438F
:100DC00008FB0CF1994207D9EB180CF1FF3002D265
:100DD000994200F2EC808446591AA3B2B1FBFEF0AE
:100DE0000EFB101443EA044408FB00F8A04507D9A1
:100DF0002C1900F1FF3302D2A04500F2DC80184626
:100E0000A4EB080440EA0C40BEE78B4208D9002E50
:100E100078D00027C6E9000138463946BDE8F0879A
:100E2000B3FA83F77FB98B4202D3824200F2BD80CE
:100E3000841A61EB030301209846002EA9D0C6E96D
:100E40000048A6E7FFDEC7F12005BB4022FA05FCFB
:100E50004CEA030C01FA07F420FA05F821FA05F32D
:100E60004FEA1C4E48EA0404B3FBFEF9210C0EFBCA
:100E700019331FFA8CF841EA034309FB08FA9A4533
:100E800002FA07F200FA07F10BD91CEB030309F190
:100E9000FF3080F088809A4540F28580A9F10209F0
:100EA0006344A3EB0A03A4B2B3FBFEF00EFB1033C2
:100EB00044EA034400FB08F8A04508D91CEB0404ED
:100EC00000F1FF336BD2A04569D90238644440EA8F
:100ED0000940A4EB0804A0FB02894C45C6464B46DA
:100EE00054D351D0002E69D0B1EB0E0264EB030451
:100EF00004FA05F522FA07F3FC401D43C6E9005445
:100F0000002746E73746304643E7184637E70746A7
:100F10001FE7C2F1200320FA03F7954001FA02F01F
:100F200021FA03F34FEA154E3843010CB3FBFEF7E9
:100F30001FFA85F80EFB173341EA034107FB08F35C
:100F40008B4204FA02F407D9691807F1FF3C28D252
:100F50008B4226D9023F2944CB1A81B2B3FBFEF063
:100F60000EFB103341EA034100FB08F38B4207D923
:100F7000691800F1FF3C10D28B420ED90238294487
:100F8000C91A40EA074714E74145ABD2B8EB020E55
:100F900069EB0C0201381346A4E76046F0E71846F7
:100FA00095E76746D8E781467BE7384645E7ACF1E9
:100FB000020C2B4410E702382C4421E73746E8E6C0
:100FC000704700BF000000000000000000000000AB
:100FD00001F0FF01102A2BDB10F0070F08D010F8EA
:100FE000013B013A8B422DD010F0070F42B3F6D1EE
:100FF000F0B441EA012141EA014122F007047FF007
:1010000000070023F0E80256083C85EA010586EA5D
:10101000010685FA47F5A3FA87F586FA47F6A5FA99
:1010200087F68EB9EED1F0BC01F0FF0102F00702A5
:1010300032B110F8013B013A83EA010313B1F8D150
:101040000020704701387047002D06BF3546033831
:10105000073815F0010F07D1013015F4807F02BF6A
:10106000013015F4C03F0130F0BC0138704700BFBB
:10107000844641EA000313F003036DD1403A41D3A3
:1010800051F8043B40F8043B51F8043B40F8043B62
:1010900051F8043B40F8043B51F8043B40F8043B52
:1010A00051F8043B40F8043B51F8043B40F8043B42
:1010B00051F8043B40F8043B51F8043B40F8043B32
:1010C00051F8043B40F8043B51F8043B40F8043B22
:1010D00051F8043B40F8043B51F8043B40F8043B12
:1010E00051F8043B40F8043B51F8043B40F8043B02
:1010F00051F8043B40F8043B51F8043B40F8043BF2
:10110000403ABDD2303211D351F8043B40F8043B91
:1011100051F8043B40F8043B51F8043B40F8043BD1
:1011200051F8043B40F8043B103AEDD20C3205D3A1
:1011300051F8043B40F8043B043AF9D2043208D099
:10114000D2071CBF11F8013B00F8013B01D30B880B
:1011500003806046704700BF082A13D38B078DD0E9
:1011600010F003038AD0C3F10403D21ADB071CBFBB
:1011700011F8013B00F8013B80D331F8023B20F825
:10118000023B7BE7043AD9D3013A11F8013B00F85E
:10119000013BF9D20B7803704B7843708B788370E6
:1011A00060467047082823D8DFE800F02D05070ABD
:1011B0000F14191E200001207047144B1878704737
:1011C000134B187800F001007047114B1878C0F3EA
:1011D000400070470E4B1878C0F3800070470C4BEE
:1011E0001878C0F3C00070470A4BEAE7094BEDE7F7
:1011F0000123093803FA00F0074B1B68184214BF9B
:101200000120002070470020704700BFA414002078
:10121000AC140020A5140020A81400202A490A7844
:10122000F8B5002A33D1294C2078FFF7BBFF0746D9
:101230006078FFF7B7FF0646A078FFF7B3FF0546D3
:10124000E078FFF7AFFF224B3B4403EB460303EB91
:101250008503204D13F830402B782BB91E4E307883
:10126000013000F00300307001330320B3FBF0F0D5
:1012700000EB40001B1A19482B700378013303F070
:101280000F030370164B186804EB40041C60013216
:1012900002F001020A7013490878FFF783FF024643
:1012A0004878FFF77FFF04468878FFF77BFF8000D0
:1012B00000EB44000244C878D2B2FFF773FF02EBA0
:1012C000C000C0B2F8BD00BFA4140020040C002070
:1012D000080C0020A6140020A5140020AC14002047
:1012E000A8140020000C002000F0ACBB00F06CB88B
:1012F000014B024A1A607047C01D002058BD00080B
:1013000045F62853984210B506D045F62953984221
:101310000ED00124204610BD8C7801205CB104F071
:10132000E1F903220221012000F010F90024F1E785
:101330008C780220F2E704F0DFF903220221012079
:1013400000F004F9E6E70000134B1B7810B50C46DB
:101350009BB1022004F0B8F938B1104A137814B1E7
:101360000133137010BD013BFBE70D4A138814B124
:1013700001331380F6E7013BFBE739B14E2003F060
:10138000C1FA4E20BDE8104003F042BB4B2003F0F1
:10139000B9FA4B20F6E700BFB0140020180C00206B
:1013A0001A0C002010B1012806D07047032009B1A3
:1013B00004F098B904F0A0B90029024B18BF014607
:1013C00019707047B014002070B5214A214C16786E
:1013D00023888AB02546002E34D043BB1E4B01AA79
:1013E00003F1200618685968144603C40833B34251
:1013F0002246F7D119889B78A3702180FFF70EFF52
:101400000AAB1844154B10F8244C1B78144E1C449E
:101410003078E4B2A0420AD000F012FC01F056F994
:10142000204600F00DFC0F2001F0D0F934700D4A79
:101430002B8811880133B3FBF1F201FB12332B80AF
:101440000AB070BD002BFBD001F0F4F82680F7E75E
:10145000B0140020AE140020D8BA0008180C0020E8
:10146000AD1400201A0C002010B50021044604F031
:1014700022F90146002002F021FC0121204604F05F
:101480001AF90146012002F019FC0221204604F05D
:1014900012F90146022002F011FC0321204604F05B
:1014A0000AF90146032002F009FC204610BD012084
:1014B000704708B5FFF724FF08BD704708B5FFF770
:1014C000FCFF08BD13B502AB03E903000F4B1B780B
:1014D000B3B99DF80230009873B16AB104F084F991
:1014E00004460146009804F037F90099204602B0FE
:1014F000BDE8104000F0E4B804F054F90446F4E705
:10150000009804F071F90099F1E700BFEB1D00208D
:1015100003460A4600689988FFF7D4BF10B500213A
:101520000446FFF7F5FF2146FFF7C8FF10BD10B5D1
:10153000012404FA02F204FA01F1114304FA03F35C
:1015400031EA00020CBF1843984310BD08B513469A
:101550000A46014603480068FFF7E9FFBDE8084076
:1015600004F09AB83C1E002008B504F09CFA08B9B3
:1015700004F026FB00F0F0FFBDE80840FFF7B4BE22
:1015800008B501F027FA002002F0FCFDBDE8084094
:10159000FFF7ACBE704708B5FFF7FCFF08BD0120A0
:1015A000704708B5FFF7FBFF08BD10B50446FFF70D
:1015B000F2FF2046FFF7F5FF10BD704710B503F0AE
:1015C000D4FC01F0CBF904F05BFC002204460321BB
:1015D000094800F03DFFFFF7F0FF204604F055FCFE
:1015E000F92805D901F026F8BDE8104004F054BCF4
:1015F000642006F06AFFF0E71C0C002038B50121DA
:101600000446FFF785FF21460546FFF752FF08B95C
:10161000002038BD2146284600F038FB0028F7D0CE
:101620002146284601F038FA0028F1D02146284604
:1016300002F062FE0028EBD02146284602F0ACFE04
:101640000028E5D02146284602F0E2FF0028DFD03E
:101650002146284602F034FC0028D9D0A3780BB3E9
:1016600045F601439D4209D045F6DE439D4216D022
:10167000B5F5B84F16D1FFF7A1FFC9E70B490B78B5
:10168000C3F3000282F0010262F300030B70DB0778
:1016900003D5074804F0F2FEBAE70648FAE704F07B
:1016A0008FFAB5E72046FFF702FFB2E78D1E002054
:1016B00076BD000887BD0008002070477047000015
:1016C0003C225043C1F30723062202FB030353FAD3
:1016D00081F3034A32F8130082B002B0704700BFB2
:1016E0006EBB0008014B33F810007047CABD0008FC
:1016F00013B5ADF804100199FFF7E2FF00F0CAF846
:10170000B0F5A04F04462DD2B0F5804F80F089800F
:10171000E72815D8E0280AD2A7280BD8A52863D235
:10172000012804D003B24BB1032898BF00242046FF
:1017300002B010BDBE285ED9C02864D20024F6E7EE
:10174000B0F5005F08D2B0F5807F03D2F028F5D362
:1017500040F4A044A4B2EAE7B0F5405F59D2C0F328
:101760000B0052E0B0F5AA4F19D2B0F5A84FC3B2A2
:1017700076D2B0F5A44F07D2B0F5A24F56D34AF2B5
:10178000F10040EA0324D2E7B0F5A64F5ED29808F4
:10179000012403F003039C4044EA401453E0B0F5F5
:1017A000B24F0ED2B0F5B04F5FD2B0F5AC4FC5D24C
:1017B000C0B200F0F1F8040204F4F85444F4005408
:1017C000B5E7B0F5B44F55D3A0F5C0439BB2B3F520
:1017D000005FB3D2C0F3042000F0DEF8000200F492
:1017E000F850E4B20443E9E75B34E4B2274B1C5DF4
:1017F00044F480449BE75834E4B2254B33F814405A
:1018000044F4884493E7C03880B2FFF76BFF044686
:101810008DE7C3B202054CBF43F4484443F440444F
:1018200085E7C0F30B0444F4204480E7C3F381044C
:10183000C0F30110640144EA002403F00303012013
:1018400000FA03F31C4344F40C4483E79808012492
:1018500003F003039C4044EA401444F40A4479E74B
:101860004AF2F40444EA032461E74AF2F00040EA51
:1018700004246FE700F00F0000F08EF8C4F30314A7
:1018800040EA042444F4104464E700BF99BD000812
:101890009CBD0008822825D00CD8312863D004D8FC
:1018A000292859D02A2865D0704735284DD03928A5
:1018B00018D07047E32830D004D8E02819D0E228A7
:1018C00026D07047E62832D0E72835D0E42832D138
:1018D000304B5A7891072ED51B7813F0100F08BFA4
:1018E000E72012E02B4B1B7813F0030F18BFE0200A
:1018F0007047284A1378D90743D4527812F0010F61
:1019000019D013F0100F08BFE32018BF0020704754
:10191000204B1B7813F0040FF2E71E4A1378590787
:1019200031D45278D20730D413F0100FEDE7194BB1
:101930001B781A07D1D47047164A1378190726D492
:1019400052789207F0D5E420F5E7124B1B7813F09C
:10195000200F18BF292070470E4B1B7813F0200F63
:1019600018BF352070470B4B1B7813F0400F18BF82
:101970002A207047074B1B7813F0400F18BF312007
:10198000704739207047E2207047E0207047E6201A
:10199000704700BF941E0020294B1A78510707D5C5
:1019A00000F01801082927D100F0F70040F00400EA
:1019B000110707D500F01801182926D100F0E7001B
:1019C00040F014005B78D90707D500F0180108290A
:1019D00024D100F0F70040F00100990707D500F08E
:1019E0001803182B23D100F0E70040F01100D306B4
:1019F00048BF00F0E700704700F01401042904BF5D
:101A000000F0FB0040F00800D2E700F014011429B8
:101A100004BF00F0EB0040F01800D3E700F0110124
:101A2000012904BF00F0FE0040F00800D5E700F0F7
:101A30001103112B04BF00F0EE0040F01800D6E7B0
:101A4000941E002070470000014B185C704700BFD7
:101A5000B11400202DE9F0410F48104DDFF84C8003
:101A60000F4F104E04F00AFD00242146404604F0BA
:101A700005FD384604F002FD15F8010B04F000F8EE
:101A80000146304604F0FAFC0134074804F0F6FC45
:101A90000A2CEAD1BDE8F081CABD0008B1140020CB
:101AA000D9CB0008DEBD0008D2C20008D9BD0008AD
:101AB000032006F00ABD000070B51B4D0A24012664
:101AC00055F8040B00F00F01202206FA01F120F076
:101AD0000F00013C08F06EF814F0FF04F0D1134D34
:101AE0000624012655F8040B00F00F01202206FA07
:101AF00001F120F00F00013C08F05CF814F0FF0445
:101B0000F0D10B490B4A0A23013B13F0FF0301F804
:101B1000014B02F8014BF7D10A2000F069F8BDE84B
:101B20007040FFF721BD00BFFCBD0008E4BD000808
:101B3000BB140020B11400202DE9F84FDFF8AC8071
:101B4000274F0A2500264FF0010958F8044B24F0CE
:101B50000F0A04F00F0409FA04F40122214650464A
:101B600008F028F8A3B2AAF81A30FFF7A1FF002264
:101B70001C49934651F8043B23F00F0003F00F0378
:101B8000006920FA03F3DB075ABF09FA02F35BB2DC
:101B90000023013243EA0B03062A5FFA83FBE9D1F3
:101BA00020222146504608F005F83B78013D5B4570
:101BB0001ABF87F800B00123002315F0FF0546EA9D
:101BC000030607F10107C0D133460A22064904483B
:101BD00000F010F8FFF7D4FC3046BDE8F88F00BFE6
:101BE000BB140020E4BD0008B1140020FCBD0008B7
:101BF00070470000F8B506460F4615460D4C2BB150
:101C00000123237004F03CF90B4B188023782BB18F
:101C1000094B188804F039F9052808D8F8BDF25C9A
:101C2000FA5401339D42FADC00232370F6E70023C7
:101C3000F8E700BFC5140020C61400200000000013
:101C4000453807EE900AF8EEE77AB2EE087AC7EE6A
:101C5000877A08B517EE900AFEF7DAFC9FED080BBD
:101C600041EC110B08F008FE002251EC100B064B62
:101C7000FEF726FDFEF7D4FF00EE100A08BD00BFF8
:101C8000000000000000004000807B4008B545F6E1
:101C90001D43984205D18B7873B300F01FFE0020DE
:101CA00008BD45F61E43984204D18B7823B300F05B
:101CB00023FEF4E745F61F43984206D18B78DBB14B
:101CC00000F004FE0028F2D1E7E745F62A439842E7
:101CD00009D18B7883B100F01FFE00220421074850
:101CE00000F0B6FBDBE745F62B43984204D18B7836
:101CF00013B100F017FEF0E70120D1E7340C00200B
:101D000008B5FFF79DFF0F20BDE8084000F05EBD5D
:101D100008B5FFF795FFBDE8084000F0D7BC00F01C
:101D200089BC7047024A136801331360704700BFD3
:101D300010150020000000002DE9F04FD04B2DEDD4
:101D4000068B1A7883B09B46002A00F01D81CD4E89
:101D50003368002B40F31881012BDFF880A3DFEDFF
:101D6000CA9ACA4CCA4F9FEDCB9A00F0A880DAED10
:101D7000007AF4EE697AF1EE10FA40F0408204EB5A
:101D8000830313ED028AC44BC44D1B78002B00F073
:101D90003382D5ED008AF4EE698AF1EE10FA00F094
:101DA000DF81F4EEC88AF1EE10FA40F1D981DFED5F
:101DB000BC7A87EE887AF2EE08AAC7EE2A7AB6EEE7
:101DC00000AA67EE8A7A17EE900AFEF721FC9FEDD3
:101DD000AA0B41EC110B08F04FFD53EC102B18EE41
:101DE000900ACDE90023FEF713FC804618EE100A96
:101DF0008946FEF70DFCDDE90023FEF761FC024693
:101E00000B4640464946FEF7CDFE002800F0A8816B
:101E100095ED008ADFEDA37A87EE887AC7EE2A7AFD
:101E200067EE8A7A17EE900AFEF7F2FB9FED920BAF
:101E300041EC110B08F020FD53EC102B18EE100AAA
:101E4000CDE90023FEF7E4FBDDE90023FEF738FCD3
:101E5000FEF7E6FE286095ED000A3B88924D4FF6AE
:101E6000FF7293421CBF01333B8000F061FDB4EE72
:101E7000C90AF1EE10FA00F1C5812B68FCEEC07AB8
:101E800003EB830303EB830317EE902A9B0092B2CC
:101E90009BB29A4200F0B981DFED847A844820EE4B
:101EA000270ABCEEC00A85ED000A06F036FE7E4920
:101EB0007F4806F012FE02217D4806F020FEDAED92
:101EC000006A3368F5EEC06AF1EE10FA40F3A281C1
:101ED000012B784921DD086890FBF3F203FB120225
:101EE00075480A6090ED007AF7EE007A04EB8205FF
:101EF00077EE277A95ED006AC0ED007AC6EE267A75
:101F0000B4EEE77AF1EE10FA07DD013292FBF3F559
:101F100003FB15220A60C0ED009A0B6804EB8304F2
:101F200094ED000A3B88654C4FF6FF7293421CBF4C
:101F300001333B8000F0FCFCB4EEC90AF1EE10FA6C
:101F400000F122822368FCEEC07A03EB830303EBEB
:101F5000830317EE902A9B0092B29BB29A4200F044
:101F60001682DFED527A564820EE270ABCEEC00AF0
:101F700084ED000A06F0D1FD5049514806F0ADFD50
:101F800002214F4806F0BBFD4E4C2378002B00F099
:101F9000DC804D4D494E95ED000AB5EEC00AF1EEDC
:101FA00010FA3BDD3A4A13884FF6FF718B421CBF93
:101FB0000133138000F0BCFC3368FCEEC07A03EB05
:101FC000830303EB830317EE902A9B0092B29BB22C
:101FD0009A4223D0DFED357A3948DFF8CC8020EE05
:101FE000270AFCEEC07A17EE907AC6ED007A06F06A
:101FF00094FD3249324806F070FD0221304806F067
:102000007EFD2B48C8F8007006F087FD4146284841
:1020100006F063FD0221264806F071FD2B482C498D
:10202000038891ED007A01339BB207EE903A03806A
:10203000336803EB830303EB83039B00F2EE006A38
:102040009BB2F8EEE77A27EE267A002B00F0A48107
:10205000204B1B78002B40F09F81F7EE006A37EE93
:10206000667AB4EEE77AF1EE10FA94BF012300230A
:10207000002B6AD0184A33E0000000000000004046
:10208000181500202415002000000000D0140020A6
:10209000CC1400200024F441540C0020F41400203F
:1020A0000000DCC30000DC43680C00200000C842D4
:1020B000C42400202015002014150020580C0020F6
:1020C000B424002019150020F81400200015002069
:1020D000FC14002002150020CA1400201C1500204A
:1020E000C94E1388368801339BB29E42138006D8AE
:1020F000C64B1E78002E00F0578100231380C44E7B
:10210000C44B96F800C01F681388BCF1000F40F064
:102110005781013B9BB2138007EBC303D3ED007AD9
:1021200093ED027AF4EE477AF1EE10FA4FF0010CDB
:102130004FF07E5308BF002286F800C00CBF2A6013
:10214000C5ED007A0B6000230380B34B1B78C3F30B
:10215000000313F0FF0F04BF23708BF800302AE157
:10216000D5ED008AF5EE408AF1EE10FA3DD03368E5
:1021700004EB830313ED028AF4EEC88AF1EE10FA41
:1021800033DDDFEDA67A87EE887AF2EE08AAC7EE95
:102190002A7AB6EE00AA67EE8A7A17EE900AFEF760
:1021A00037FA9FED970B41EC110B08F065FB53ECF0
:1021B000102B18EE900ACDE90023FEF729FA80468D
:1021C00018EE100A8946FEF723FADDE90023FEF730
:1021D00077FA02460B4640464946FEF701FD20B11C
:1021E00095ED008ADFED8E7A16E6336804EB830303
:1021F00053F8083C2B602EE685ED008A2BE6B0EE06
:10220000690A2AE69FED870A46E6874806F085FCBC
:1022100029464DE604EB830313ED018A834B844D7D
:102220001B78002B00F0AD80D5ED008AF5EE408ADA
:10223000F1EE10FA59D0F4EEC88AF1EE10FA54D546
:10224000DFED777A87EE887AB2EE08AAC7EE0A7ACF
:10225000F6EE009A67EEA97A17EE900AFEF7D8F923
:102260009FED670B41EC110B08F006FB53EC102BB4
:1022700018EE900ACDE90023FEF7CAF9804618EE61
:10228000100A8946FEF7C4F9DDE90023FEF718FAC3
:1022900002460B4640464946FEF784FC28B395EDBE
:1022A000008ADFED5E7A87EE887AC7EE0A7A67EEFB
:1022B000A97A17EE900AFEF7ABF99FED510B41ECAE
:1022C000110B08F0D9FA53EC102B18EE100ACDE9D7
:1022D0000023FEF79DF9DDE90023FEF7F1F9FEF793
:1022E0009FFC286095ED000A1CE6D5ED008AF5EE0E
:1022F000408AF1EE10FA3DD0336804EB830313ED0E
:10230000018AF4EEC88AF1EE10FA33DDDFED437A8C
:1023100087EE887AB2EE08AAC7EE0A7AF6EE009A3D
:1023200067EEA97A17EE900AFEF772F99FED340B6B
:1023300041EC110B08F0A0FA53EC102B18EE900AA8
:10234000CDE90023FEF764F9804618EE100A8946AD
:10235000FEF75EF9DDE90023FEF7B2F902460B460F
:1023600040464946FEF73CFC20B195ED008ADFED82
:102370002C7A98E7336804EB830454F8043C2B6010
:10238000B0E785ED008AADE79FED260AE9E529482B
:1023900006F0C3FB2146F0E5F4EEC77AF1EE10FA41
:1023A000ACBF0123002363E6224806F0B6FB1E48BB
:1023B00006F0B3FB267003B0BDEC068BBDE8F08FD2
:1023C0000022327007EBC3031B4EDFED1C6A328024
:1023D0001A682A601A4A127807EE102AB8EE477A6D
:1023E000C7EE267A93ED017AF5EE006A27EE267A9B
:1023F00067EE877AC1ED007AA5E600BFAFF30080F3
:102400000000000000000040041500200C15002012
:102410000215002008150020C81400200000DC432D
:102420000000DCC3F628F441C4240020540C002032
:10243000F0140020B4240020CC1400200000C84276
:10244000880C0020014805F01FBE00BFE0BF000857
:102450002D4B1B7870B504460E4615460BB900F09F
:102460007BF82A4B1B78DB074DD5294B1B780BB12A
:1024700000F0E0F8274BDFED286A284801221A70A7
:10248000274B1C60274B1E80274B1D70274B0022BB
:102490001A60274A216800231380264A1160264AC1
:1024A0002649127807EE102AB8EE477A244AC7EE7A
:1024B000267A94ED017AF5EE006A27EE267A67EE29
:1024C000877AC2ED007A1F4A138006F006FB0221CC
:1024D000124806F014FB1C4806F01FFB1B491A4863
:1024E00006F0FBFA0221184806F009FB184806F02E
:1024F00014FB1849164806F0F0FA02211448BDE80A
:10250000704006F0FCBA70BDC9140020C814002049
:1025100018150020191500200000C842D4240020FE
:1025200008150020041500200C15002014150020AB
:10253000CA140020F8140020880C0020780C002019
:10254000FC14002000150020B4240020580C0020AA
:10255000C4240020680C002038B5274C2278002ABB
:1025600048D103F0A0FA08B903F02AFB03F0CBFA34
:10257000224D0322287010214FF0904007F01AFBE3
:10258000032220214FF0904007F014FB1C491D4806
:1025900006F07FFA1C491D4806F07BFA1C491D48CD
:1025A00006F09BFA02211B4806F0A9FA1A491B48BB
:1025B00006F093FA0221194806F0A1FA6423184A9A
:1025C0001849104806F073FA6423174A17490F4850
:1025D00006F06DFA012323702B78DB0706D5002265
:1025E00004211348BDE83840FFF732BFBDE838404A
:1025F00000F020B838BD00BFC9140020C814002066
:1026000024BE0008782200202ABE0008A82200204C
:10261000580C0020B4240020680C0020C4240020A2
:1026200030BE0008C0BF0008F8BE0008D0BF0008D8
:10263000900C0020174B1B78DB0710B502D516480D
:1026400003F01CFF154B1B780BB9FFF785FF144BEC
:10265000144800241C6006F060FA134806F05DFA86
:10266000124806F05AFA124B12481C70124B1349CA
:102670001C70134B00221A60124B1A60124B1C6024
:102680000823013B13F0FF0340F8042B41F8044BEF
:10269000F7D110BD8D1E00200BC00008C91400200A
:1026A00024150020B4240020C4240020D4240020B9
:1026B00019150020D0140020181500202C1500201A
:1026C000F0140020F41400202815002070B5314BC0
:1026D0001B78DC072DED028BB0EE408A06D5FDEEAF
:1026E000C07A2D4817EE901A03F0C8FE2B4C2378C1
:1026F000002B3AD02A4B1B780BB9FFF72DFF294945
:1027000007230A46D1ED077AF4EE487AF1EE10FA83
:102710003AD19800111800250D602349002641F890
:102720002360014404300244072B21D11F4B1A6857
:10273000013A48BF00221A601D681D4B1A68AA4260
:10274000A4BF00221A6085B91A4806F0E6F91A48B3
:1027500006F0E3F9194806F0E0F9194A257000235C
:102760001360184A1360184B1D60BDEC028B70BDDE
:1027700052F8040B42F8080C48680860013342F82C
:10278000045C41F8046FCFE7013B581CA1F1040140
:10279000B8D1CBE78D1E002020C0000818150020FE
:1027A000C9140020D01400202C150020241500206E
:1027B00020150020B4240020C4240020D4240020AC
:1027C000F0140020F41400202815002038B52F4BF9
:1027D0001B78DA072DED028B0546B0EE408A07D54F
:1027E000FDEEC07A024617EE901A294803F046FE25
:1027F000284B1B780BB9FFF7AFFE274B1B78DB0785
:1028000040D5264C2368072B3CDC254B1B780BB1AD
:10281000FFF710FF234B01221A70B5EEC08A224B3E
:102820000022F1EE10FA1A800ADD23681F4A02EB3B
:10283000830282ED008A1E4A42F82350013323604E
:102840001C491D4806F049F902211B4806F057F9BA
:102850001A4806F062F91A49184806F03EF90221B2
:10286000164806F04CF9174806F057F9164915486E
:1028700006F033F9BDEC028B02211248BDE8384066
:1028800006F03DB9BDEC028B38BD00BF8D1E0020A7
:10289000ECBF0008C9140020C81400202415002033
:1028A0001915002018150020CC140020D014002089
:1028B0002C150020780C0020D4240020B424002003
:1028C000580C0020C4240020680C0020024B18780B
:1028D00000F00100704700BFC814002008B5054B88
:1028E000187840F00100187003F010F9BDE80840B6
:1028F000FFF717BAC814002008B5FFF79BFE054B79
:1029000018786FF300001870C0B2BDE8084003F0FB
:10291000FDB800BFC8140020014B00221A70704798
:102920004C150020014B00221A7070474C150020F6
:10293000064B1B7843B9064A1370064B4FF07C5286
:102940001A60054B00221A60704700BF4C1500202A
:10295000540C00208C0C00201C150020024B1B780E
:102960000BB1FFF7DCB970474E15002008B5FFF733
:10297000F5FF044B044800221A700821BDE8084006
:10298000FFF766BD4E150020D40D0020034B044810
:10299000002208211A70FFF75BBD00BF4D15002013
:1029A000B00C002010B5FFF7D9FF084A084813788B
:1029B000013303F003031370282404FB03000022F7
:1029C0000521BDE81040FFF743BD00BF300D0020DA
:1029D000340D0020F8B5174B1B788BB1164C2088AE
:1029E00040B903F04DFA2080144C154D227842B1C5
:1029F000531E08E003F049FA124B1B888342F0D3C0
:102A0000F8BD2B78013B104E317849B10F49C85CB5
:102A10008F5CFFF77DF9337813B13846FFF770F913
:102A2000237829780133B3FBF1F201FB12332370D1
:102A3000E6E700BF60150020641500206115002046
:102A40005F150020580E00204E1500204F15002065
:102A50007047000008B5054B054801221A7008218F
:102A60000022FFF7F5FCFFF7F3FF08BD4E1500202D
:102A7000180E00207047000008B5054B05480122DC
:102A80001A7008210022FFF7E3FCFFF7F3FF08BDEF
:102A90004D150020F00C00202DE9F04145F62643AD
:102AA00098428AB0044606D18B78002B3ED0FFF7BF
:102AB000D1FF002053E045F62743984205D18B789B
:102AC000002B33D0FFF752FFF3E745F62843984237
:102AD00006D1634B8A781B7842B3002BF2D1E6E72C
:102AE00045F62C43984204D18B78FBB1FFF7C4FF25
:102AF000DFE745F62D43984204D18B78B3B1FFF759
:102B000045FFD6E745F62E43984206D18B786BB148
:102B1000544B1B78002BF2D1E8E745F62943984245
:102B200004D18B7813B1FFF73DFFC2E74C4B1A7805
:102B300022B94C4B1B78002B00F090808E78002E31
:102B40003DD0E02C0ED1FFF709FF474B01221A7050
:102B5000464B00201870464B1870464B18700AB050
:102B6000BDE8F081E22C0BD1FFF7F8FE3E4B1A785E
:102B700012B13E4A01211170002018703C4BEDE764
:102B8000E32C0FD1394B1B78CBB1FFF7E7FE364B67
:102B900000201870364B01221A70374B1870374BD3
:102BA0001880DCE7522C04D1354A13880A3B138085
:102BB0007FE7512C03D1324A13880A33F7E74B7869
:102BC00030480978062505FB030313F801C02E4B96
:102BD0001D782E4B1B6824351D442D4B1B78EDB200
:102BE0009BB96544EDB29EB312B12846FFF788F851
:102BF0001D4B1B782BB11F4A26491378CD54013346
:102C00001370B4FA84F04009A9E7234B01AF03F134
:102C1000200818685968BE46AEE8030008334345EB
:102C20007746F6D11988AEF800109B788EF80230FE
:102C30000C21BCFBF1F303EB430001FB13C30AA916
:102C400051FA83F305EB800513F8243C1D44C9E7D2
:102C5000002AD6D02846FFF75BF8D2E701207EE7AE
:102C60004E1500204D150020631500206215002030
:102C7000601500205F1500206115002064150020FC
:102C8000580E00201EBB00085A0E0020140E002013
:102C9000300D00204F150020FBBA000808B500F0E9
:102CA0006DF940F6FF7008BD08B5074800F01EF941
:102CB000064800F01BF9064800F018F90548BDE881
:102CC000084000F013B900BF00E0030800E8030863
:102CD00000F0030800F80308B0F5805F2DE9F0412B
:102CE000884602D30020BDE8F081460006F1006569
:102CF00005F578354FF6FF722B889A424FEAA024EB
:102D000004D1284600F014F980B2ECE7E402124F37
:102D100004F1006404F578344FF40062214638462B
:102D2000FEF7A6F92B789845DCD040F2FE733340CD
:102D3000204607F8038000F0D9F80025795D61F09E
:102D4000FF014B1C03D089B2601900F0F1F8023585
:102D5000B5F5006FF2D1D7E76615002080B24000CC
:102D600000F1006000F578300078704780B2FFF71E
:102D7000B3BF83B25B0003F1006303F578331A78C5
:102D8000431C9BB25B0003F1006303F578331878B2
:102D900042EA0020704738B584B20D462046C9B2D9
:102DA000FFF79AFF601C290A80B2BDE83840FFF7A0
:102DB00093BFFFF7F0BF83B25A1C10B592B2580010
:102DC000520000F1006002F1006200F5783002F577
:102DD0007832017814789A1C92B25200033302F1CF
:102DE00000629BB202F578325B0003F10063127857
:102DF00003F578331878130443EA04230B4343EABA
:102E0000006010BD80B2F8B5471CBFB243007A0025
:102E100003F1006302F1006203F5783302F57832C2
:102E2000861CB6B20C46197892F800C0720002F106
:102E3000006202F57832C51CADB213786A0002F167
:102E4000006202F578321B04127843EA0C230B432C
:102E500043EA0263A34212D0E1B2FFF73DFFC4F39D
:102E600007213846FFF738FFC4F307413046FFF724
:102E700033FF210E2846BDE8F840FFF72DBFF8BD0F
:102E80000B4BDA68D2070CD4DA6851070BD4DA6836
:102E9000D2060AD4DB6813F0010F0CBF0520042012
:102EA000704701207047022070470320704700BF21
:102EB0000020024073B50446FFF7E2FF0025FF261D
:102EC00001280FD114B9062002B070BD01950196FA
:102ED000019B1BB9FFF7D4FF013CF1E7019B013BCC
:102EE0000193F5E7002C08BF0620EDE738B505464D
:102EF00040F6FF70FFF7DEFF052815D10B4C236964
:102F000043F0020323616561236943F040032361B9
:102F100040F6FF70FFF7CEFF06281EBF236923F09F
:102F2000020323613423E36038BD00BF0020024068
:102F3000104B00F178429A4270B505460E4616D8FD
:102F40001F20FFF7B7FF052810D10B4C236943F072
:102F5000010323611F202E80FFF7ACFF06281EBF50
:102F6000236923F0010323613423E36070BD07204C
:102F7000FCE700BFFEFF070000200240034B044AAD
:102F80005A6002F188325A60704700BF0020024048
:102F90002301674530B585B0C0F307220190C0F327
:102FA0000740BAB909B1314B185C8DF80C008DF8A7
:102FB0000D008DF80E009DF80C30002063F3070023
:102FC0009DF80D3063F30F209DF80E3063F317402A
:102FD00005B030BD9DF8043071B32449085C03EBA3
:102FE0004304FF216400B4FBF1F46FF0540161432A
:102FF00001EB430101EB4101C9B212FB01F3C1F145
:10300000FF01C2F1FF054A431B121212C3F1FF0375
:10301000C2F1FF02454343434243C5F30725C3F3CF
:103020000723C2F30722C0B2062C19D8DFE804F048
:103030000608110F1418060080B2D0E703461046A8
:103040008DF80C008DF80D308DF80E50B3E7024668
:1030500018462B461546F3E7134602462846F9E77D
:10306000024628461D461346EAE700BF5BC4000837
:1030700084B0012104B0FFF78DBF704713B58DF800
:1030800002208DF800008DF8011000981C46FFF713
:10309000EFFFC0F30743C0F3072262702070A370F4
:1030A00002B010BD064A137813F0FE0F04D10121BF
:1030B00061F3470313707047552BFCD92A21F7E7BA
:1030C000B81D00200820FFF776BE08B5FFF7EAFF1D
:1030D000BDE8084001460820FFF794BE034B0448B2
:1030E000186000221A71FFF7F0BF00BFB81D002062
:1030F0000300FFFF38B51C4C2378D90732D51B4895
:1031000003F0BCF92378DA072CD5194D1948297832
:1031100001F0010103F0B2F92378DB0722D5297809
:103120001548490803F0AAF92378D8071AD5697811
:10313000124803F0A3F92378D90713D5A9781048CA
:1031400003F09CF92378DA070CD5E9780D4803F0F1
:1031500095F92378DB0705D529790B48BDE8384078
:1031600003F08CB938BD00BF8D1E002052C000088E
:10317000B81D00206BC0000888C00008A3C000086C
:10318000BDC00008D7C00008F1C00008034B1B7881
:1031900013F0010018BF5808704700BFB81D002089
:1031A000054B1A79022A9CBF01321A7110B11868B6
:1031B000FFF78BBF704700BFB81D00200120FFF74D
:1031C000EFBF0000044B1A790AB1013A1A7110B12D
:1031D0001868FFF77ABF7047B81D00200120FFF77D
:1031E000F1BF0000012303FA00F0034B9B78034278
:1031F00014BF012000207047C41D002000F016BF3E
:103200002DE9F04F3148324E037896F801A013F0C3
:10321000010385B010D02F4BD3F80080B8F1000F18
:103220001DD130782C4B00EB400051461844FFF77D
:10323000E5FF05B0BDE8F08FB2782749F47802EBDE
:1032400042052944944201F10301E4D9013201F815
:10325000023C01F8033C01F8013CD2B2F2E70378EA
:10326000DB07DED5DFF870900027F8B2FFF7BAFF72
:1032700040B358F82750002DD3D0053515F8054C2C
:1032800015F8032C0192FF2C15F8022C15F8043CBC
:10329000029215F801BC15D02344092BA8BF0923BD
:1032A00003EB43034B4404EB440403934C44039B60
:1032B000A342E2D923465A46DDE90101FFF7DEFECB
:1032C0000334F4E70137082FCFD1AAE7B81D002057
:1032D0005E0E0020C01D00206D1D00200E4B1B78CF
:1032E000DB0770B416D50D4CA378E5780C4C03EBD6
:1032F00043063444AB4204F1030402D370BCFFF72D
:103300007FBF013304F8020C04F8031C04F8012CFD
:10331000DBB2EFE770BC7047B81D00205E0E0020E6
:103320006D1D0020094B1B78DB0707B50AD501ABE3
:10333000FFF7A4FE9DF806209DF804109DF80500F7
:10334000FFF7CCFF03B05DF804FB00BFB81D002001
:10335000064B0279064910B504468A5C587899787C
:10336000FFF7E0FF23790133237110BDB81D002062
:1033700070C10008054B10B50446DA7899780079D9
:10338000FFF7D0FF23790133237110BDB81D002052
:1033900037B5164C0546207838B9FF2201AB1146E7
:1033A000FFF76CFE9DF8053023702979012915D0AF
:1033B00089B1022916D0002210461146FFF78EFF70
:1033C0002B7903220133B3FBF2F202EB42029B1A88
:1033D0002B7103B030BD20780A46EFE70022217838
:1033E0001046EBE7002022780146E7E7B61D0020F3
:1033F0002DE9F04F474D95F800C089B01CF0010F42
:1034000006468946174605932DD04FEA5C03424C89
:10341000DFF820E1E45C8EF800400CF0FE0CBCF11B
:10342000020FDFF814A121D107ABFFF727FE9DF8AB
:103430001E209DF81C109DF81D00FFF74FFF059BF7
:103440006E7085F80290EF70002B5AD02868FFF755
:103450003CFE9AF80030DA0705D5EB78AA7869784F
:103460002E4803F00BF809B0BDE8F08F022C01D113
:10347000EF78E4E7062C01D16E78E0E7092CFBD069
:10348000192CDCD1193BDBB203F001020392DA43C1
:1034900002F0010204925B08214AD35C02934FF0D0
:1034A000000B204B1B795FFA8BF8434502D8FFF7DE
:1034B000A7FEC4E7029A02FB08F4B4FBF3F4039BF3
:1034C000E4B2E3B934449AF80030D907E4B207D53E
:1034D000029B00932246049B1348414602F0CEFF14
:1034E000104B9B789844114B08EB480843443A46EC
:1034F00049462046FFF7C2FD0BF1010BD1E7341B13
:10350000E1E79AF80030DB07ADD53B464A46314645
:103510000748A6E7B81D00200DC10008A6C3000893
:103520003CC000085E0E00207FC300086D1D002017
:10353000CBC30008C41D00208D1E0020054910B417
:103540004C78CA78897808340346E0B25DF8044BB9
:10355000FFF74EBFB81D00200120FFF7EFBF0000AE
:10356000054910B44C78CA788978083C0346E0B223
:103570005DF8044BFFF73CBFB81D00200120FFF7AA
:10358000EFBF000010B4074CA178E2781131FF2999
:1035900028BFFF210346C9B260785DF8044BFFF7EE
:1035A00027BF00BFB81D00200120FFF7EBBF0000C0
:1035B00010B4064CA178E278113921EAE171034692
:1035C000C9B260785DF8044BFFF712BFB81D002048
:1035D0000120FFF7EDBF000010B4074CE278A1789E
:1035E0001132FF2A28BFFF220346D2B260785DF86D
:1035F000044BFFF7FDBE00BFB81D00200120FFF700
:10360000EBBF000010B4064CE278A178113A22EA30
:10361000E2720346D2B260785DF8044BFFF7E8BE71
:10362000B81D00200120FFF7EDBF0023FFF7E0BE2B
:103630002DE9F041144EDFF85880144F0446002560
:103640003179E8B281420DD8FFF7DAFDA37813F0A3
:10365000010F237914BF013303F1FF335BB22371F0
:10366000BDE8F081B378FF22B2FBF1F22179034487
:1036700003EB430302FB00104344FA78B978C0B26D
:10368000FFF7FCFC0135DBE75E0E0020B81D0020D3
:103690006D1D00202DE9F74F8378314E314D13F029
:1036A000010F0CBF01234FF0FF3300934FF00009CF
:1036B00033795FFA89F843450CD8FFF7A1FD009BE9
:1036C000012B2B7845D103B93379013B2B7003B023
:1036D000BDE8F08FB378244ADFF890B0434403EBA1
:1036E000430302EB030A00248AF80140D4549DF8F6
:1036F00000308AF80240019327462A782244D2B249
:1037000053B2092B1FDD092293FBF2F202EBC20236
:103710009B1A5BB298450DD19BF803309BF80210C1
:103720009BF80100C7F104025A43C2F387025346D3
:10373000FFF7A4FC019B01371C44042FE4B2DCD149
:1037400009F10109B4E7002BE4DA054B1B791344B6
:10375000DFE731790133B3FBF1F201FB1233B5E757
:103760005E0E0020B71D00206D1D0020B81D00203A
:103770002DE9F8432B4C2C4DA378E07803EB430262
:103780002A440021984202F1030220D8274EDFF894
:10379000A090DFF8A48000272179FAB291421FD8C7
:1037A000FFF72EFD224D23482A78017833780A440A
:1037B00052B20B445BB2002A33702A7003DD2279C7
:1037C000013A934201DB49420170BDE8F8830133BD
:1037D00002F8021C02F8031C02F8011CDBB2D1E75C
:1037E000B2FBF1F301FB1323A1780B4496F900100F
:1037F000DBB28A4203EB43030EDB99F900108A42E5
:103800000ADC2B4498F8032098F8021098F801007D
:10381000FFF734FC0137BFE7E91800224A70EA5489
:103820008A70F7E75E0E00206D1D0020B51D002098
:103830005B0E00205C0E0020B81D0020037913FBF6
:1038400003F25A43C3F120032DE9F04703FB03F1D0
:103850005525554303FB0123B5FBF3F5EDB2292DA7
:1038600085BFC5F1550404EB440405EB450404EBA6
:10387000D474DFF87480DFF874A094BF6FEA540446
:103880006FEA64040646E4B20027C14698F80420B3
:10389000FBB29A420BD8FFF7B3FC3379104AD3B985
:1038A00001211170127813443371BDE8F0879A0733
:1038B00099F802200B49134458BFC5F1550003EB9A
:1038C000430354BFC0B22846534422468978FFF7C9
:1038D000D5FB0137DAE7202BE4D1FF21E1E700BF78
:1038E0005D0E0020B81D00205E0E00206D1D002022
:1038F0002DE9F041154FDFF85C80154D0646002498
:103900003A79A24208DCFFF77BFC3379013303F0FC
:1039100001033371BDE8F081BB7896F804C0687884
:10392000A978234403EB4303B4EB520F434407DA73
:10393000BCF1000F07D0EA78FFF7A0FB0134DFE706
:10394000BCF1000FF7D00022F6E700BF5E0E0020AA
:10395000B81D00206D1D00202DE9F84F012390F8BF
:103960000280DFF818A1444E90F8049003710027FC
:103970009AF80430FCB2A34203D8BDE8F84FFFF731
:103980003FBCA500B9F1000F15D12B19334483F8C2
:10399000039083F80290394B394A9B7823442C4496
:1039A000311903EB43031344305D8A784978FFF7FC
:1039B00065FB0137DCE72A193244D3784BB3013B6E
:1039C00092F804E0DBB2D370BEF1000F1FD0C3F158
:1039D0004B015FFA81FC2B482A193244C17811FB54
:1039E0000CF14FF04B0CB1FBFCF191702BB9BEF117
:1039F000000F02D0137182F803C0B8F1020FCAD8C9
:103A00002B19F2184178F15483785370C3E79C4620
:103A1000E1E707F0CDFF1C4B9842BCDCB8F1020F88
:103A2000DFF860B021D907F0C3FFFF2390FBF3F369
:103A3000184400F0FF002B19B8F1020FF05417D909
:103A400007F0B6FF9BF802305B0890FBF3F202FB35
:103A500013000344DBB22A193244537000239370DD
:103A60004B23D3700123137195E79BF80100E2E724
:103A70009BF80230EFE700BF881D00205E0E00209B
:103A80006D1D0020B81D00200704020108B50C4B75
:103A90000C4819780B224908FDF79AFA10B90A4B1D
:103AA00001225A7002F0ECF9084B1880084B1B7881
:103AB000DB0704D50748BDE8084002F0DFBC08BDBD
:103AC000B81D0020630E0020C41D0020661D0020CC
:103AD0008D1E00200BC40008054B00225A70054BB8
:103AE0001B78DB0702D5044802F0C8BC704700BF52
:103AF000C41D00208D1E0020F2C3000838B51D4CE7
:103B00002378DD0735D518BB012262F34703237004
:103B1000194D21B32068FFF7D8FA2B78DA0704D5BE
:103B200021781648490802F0A9FC217814480B2294
:103B30004908FDF74DFAC8B1FFF7CEFF114BA17848
:103B400060780122DA70E278BDE83840FFF76DBD99
:103B50002A2801D92A22D8E760F34703D7E72B7830
:103B6000DB07E2D5217808484908DCE7FFF78EFF3C
:103B7000E4E738BDB81D00208D1E002045C30008B5
:103B8000630E0020661D002061C30008054B1B78F2
:103B90005B0801332B2B014634BF18460120FFF789
:103BA000ADBF00BFB81D00200120FFF7EFBF000030
:103BB000064B1B78C3F34603013B13F0FF0301469A
:103BC00014BF18462A20FFF799BF00BFB81D002078
:103BD0000120FFF7EDBF0121FFF790BF10B5094CA1
:103BE000227842F001022270074A1278D30703D5E7
:103BF0000121064802F042FC2078BDE81040400850
:103C0000FFF7E9BFB81D00208D1E002070C200081C
:103C10000021FFF773BF000070B5204E3278002AF4
:103C20003AD11F4C2378DD0708D51E4802F026FC48
:103C30002378D80702D51C4802F020FC01F033FF9E
:103C400048B92378D90702D5184802F017FC01F0CB
:103C5000B7FFFFF743FAFFF735FA154D10F0FE0FE7
:103C600028600AD12378DA0702D5124802F006FC50
:103C7000FFF734FAFFF726FA2860FFF713FAFFF789
:103C800039FA0D4B287800225A70C30702D5400834
:103C9000FFF7BEFF0123337070BD00BF6C1D002015
:103CA0008D1E0020A7C20008BEC20008D4C20008B2
:103CB000B81D0020FCC20008C41D0020094A0123D1
:103CC00003FA00F0937849B10343DBB29370537861
:103CD0003BB9054B18784008FFF79ABF23EA000369
:103CE000F4E77047C41D0020B81D002010B50E4C2D
:103CF00023786FF3000323702068FFF7E6F90B4B7E
:103D00001B78DB0705D52178094801F0010102F095
:103D1000B5FBFFF7E1FE41F2883004F0D6FBBDE8C9
:103D20001040FFF76DBA00BFB81D00208D1E0020A7
:103D300038C100080C4B1B7813F0010F10B50B4C69
:103D400006D021780A48C94301F0010102F096FB30
:103D50002378DB0703D5BDE81040FFF7C7BFBDE8F8
:103D60001040FFF73BBF00BF8D1E0020B81D002094
:103D700024C40008334B5A782DE9F041002A5FD063
:103D80001A78314B314E1B78C2EB5303DBB2022A57
:103D9000B37019D12E4A2F4DD45CF3783BB1002774
:103DA000F77002F06DF8E34318443080B780308834
:103DB00002F06BF8A04243D3338824481C4434807B
:103DC0002B46BDE8F0411847062A03D1224A234D6D
:103DD000D45CE2E7092A04D15B08214A214DD45C76
:103DE000DBE70F2A04D15B081F4A204DD45CD4E7DF
:103DF000152A03D11E4A1F4DD45CCEE7182A14D0D1
:103E0000232A03D11C4B1D4D1C88C6E7242A0FD042
:103E1000252A11D10322B3FBF2F202EB42029B1AD4
:103E2000DBB2174A174DD45CB7E72824164DB4E728
:103E30004FF4FA74154DB0E74FF4FA64144DACE743
:103E4000BDE8F081C41D0020B81D0020661D0020C3
:103E500038C000085133000844C00008753300081A
:103E600047C00008313600084CC0000895360008ED
:103E700041C00008713700084AC0000891330008AB
:103E80004FC00008593900083D380008F1380008D3
:103E90007B30000800B11047084738B504460D468E
:103EA000FFF774F9A04206D3FFF770F9A84202D2D7
:103EB000FFF77AFE38BD2046BDE83840FFF78BBEDD
:103EC00038B58C780546002C55D001F00FFDA5F5CE
:103ED000B943423B00F02200132B0ED8DFE803F079
:103EE0000A0F14171A1D202326292C2F33383B3E86
:103EF00041444649FFF71EFF0024204638BD1F4AB3
:103F00001F49FFF7C7FFF7E71D4A1C49F9E71D4A9C
:103F10001D49F6E71C4A1B49F3E71C4A1C49F0E718
:103F20001B4A1A49EDE71B4A1B49EAE71A4A194995
:103F3000E7E71A4A1A49E4E7194A1849E1E7012074
:103F4000FFF749FED8E705210220FFF7A6FFD3E7D8
:103F500008210620F9E70E210920F6E714210F2099
:103F6000F3E717211520F0E71820E9E722211920AF
:103F7000EBE72320E4E70124BFE700BFD13B0008C3
:103F8000A93B00087D35000859350008D1350008E7
:103F9000A935000825360008FD350008DD31000888
:103FA000BD31000830B5072201254FF090410224B1
:103FB00005FA02F303400C831AD0002300BF00BFB0
:103FC00000BF00BF00BF00BF0133052BF6D14C83FB
:103FD00000BF00BF00BF00BF00BF00BF00BF00BFE9
:103FE00000BF00BF00BF00BF12F1FF32E0D230BD02
:103FF00000BF00BF00BF00BF00BF00BF00BF00BFC9
:1040000000BF00BF00BF00BF4C8300BF00BF00BFA8
:1040100000BF00BF00BF0133052BF6D1E4E701224A
:1040200002214FF0904005F0C5BD0000F8B51B4DD2
:104030002B7804460E461BB9FFF7F1FF01232B70C6
:10404000202383F3118800235F1CDBB2B34216D315
:10405000DFED137A002300BF00BF00BF00BF00BF29
:1040600000BF013307EE103AB8EEC77AB4EEE77A34
:10407000F1EE10FAEFD4002383F31188F8BD03EBBF
:104080004303E518E05CFFF78DFF6878FFF78AFFD0
:10409000A878FFF787FF3B46D6E700BFC71D002083
:1040A0000000A84408B5FDF74FF908BD10B50C4C49
:1040B00020224FF48051204605F07CFD20224FF451
:1040C0000051204605F076FD226923691B0BC2F3DF
:1040D000003203F002031343024A137010BD00BF05
:1040E00000040048C91D00201C4B1A691B6910B54B
:1040F0001B0BC2F3003203F002031343184A194C9E
:10410000117843EA8103DBB21370174A03F00F03FF
:10411000D35C227813445BB2032B237007DD134A70
:1041200013780021013308461370FFF7BBFF94F9A1
:104130000030033307DA0D4A13780121013B0020D8
:104140001370FFF7AFFF94F900305A4202F00302F8
:1041500003F0030358BF5342237010BD000400480E
:10416000C91D0020C81D00205BC50008CA1D002015
:1041700008B5FDF717F908BD704708B5FFF7FCFF54
:1041800008BD00002DE9F84F184E194FDFF864A064
:104190000024834625462246B146B8465AF8041BF9
:1041A00021F00F0301F00F011B69CB40DB4303F04B
:1041B0000103D9B2A3401D4317F8013B06F8011BC8
:1041C0009942E0B202D1BBF1000F02D0FFF7D0FF5D
:1041D00001220134042CE1D132B12846FFF7CDFF92
:1041E000D9F80030C8F80030BDE8F88FCB1D0020AA
:1041F000CF1D00206CC5000870B50B4D04240126AE
:1042000055F8040B00F00F01202206FA01F120F00E
:104210000F00013C05F0CEFC14F0FF04F0D10120AA
:10422000BDE87040FFF7AEBF6CC500082DE9F04750
:10423000144682789DF820701D4680468A462C4B95
:1042400092B11C7001F01CFE2A4B188004F120036F
:10425000DBB2072B49D804F007040120A040C0B20C
:10426000BDE8F04700F041BC1E78A64233D1214B97
:10427000188801F00AFE41468146504601F014F9C3
:10428000814528D2AE4205F1200415D006F1200365
:10429000DBB2072B06D806F007060120B040C0B2FB
:1042A00000F02CFCE3B2072B06D805F00703012031
:1042B0009840C0B200F019FC3846E4B200F005FCAA
:1042C000072C12D805F007050120A840C0B2BDE8B0
:1042D000F04700F013BC04F12003DBB2072B04D835
:1042E00004F007040120A040F0E7BDE8F08700BF1C
:1042F000D31D0020D41D002013B545F6F34304461A
:104300009C42084626D011D845F6D8439C421CD082
:1043100045F6D9439C4237D045F6D7439C420ED14F
:1043200026230093E1231A4621461EE045F6F54375
:104330009C421FD013D345F6F6439C421FD0807891
:1043400030B3144B00221A7012E027230093E523A8
:10435000E522E9E726230093E022E123E4E727238F
:104360000093E422E52345F6F441FFF75FFF0020C8
:1043700002B010BD26230093E222E123D4E72723D5
:104380000093E622E523CFE7282300930123DFE70C
:104390000120EDE7D31D002038B5054688780028B8
:1043A00000F02A8145F602439D422CD345F6154381
:1043B0009D4204D9A5F5B9437A3B082B23D801F0D7
:1043C0008AFB8E4C45F610439D42208000F0D2803F
:1043D0003FD845F608439D4200F0A2801ED845F61E
:1043E00004439D4200F08C800ED845F602439D4266
:1043F0007DD045F603439D427ED0208801F077FBB7
:1044000000F0B3FD002038BD45F606439D4200F0A4
:10441000838079D9237843F020036BE045F60C4381
:104420009D4200F0938009D845F60A439D4200F072
:10443000818079D923786FF300035BE045F60E4362
:104440009D4200F08B8040F2858023786FF3041347
:1044500050E045F6FB439D425AD024D845F613431D
:104460009D4200F08F800ED845F611439D4200F02A
:10447000858045F612439D42BFD100F076FD23783A
:104480006FF3C71336E045F615439D4200F08A806E
:10449000C0F0A48045F6FA439D42AED1637843F064
:1044A00001036370A9E745F6FF439D4272D0B5F55D
:1044B000BA4F0ED245F6FD439D4257D052D963788C
:1044C00023F0030343F003036370002204214C48EC
:1044D00039E045F601539D4200F08A80B5F5BA4FA8
:1044E0006FD945F602539D4287D1002081E02378A1
:1044F00043F00103237080E7237843F00203F9E7D8
:10450000237843F00403F5E7237843F00803F1E749
:10451000637843F00203C4E7237843F01003E9E72C
:10452000237843F04003E5E700F01FFD237843F0D4
:104530008003DFE7237823F00C0343F00C032370A0
:10454000304800220421FDF783FF56E723786FF3FC
:104550004103CFE723786FF38203CBE723786FF330
:10456000C303C7E763786FF300039AE763786FF3D9
:10457000410396E723786FF34513BBE723786FF386
:104580008613B7E7237823F00C032370002202215F
:104590001D48D8E7637823F00303637000220221EB
:1045A0001A48D0E72278C2F3800383F00103DBB21C
:1045B00063F3820263F3C302227012F00802E6D0B2
:1045C000BEE76278D34303F0010363F3000263F3B1
:1045D0004102627012F00202E1D076E700F0C5FC01
:1045E0002378C3F3C01282F0010262F3C71381E79C
:1045F000012001F0E7FA00E7012004E7941E002003
:10460000B00E0020800E0020700E0020A00E0020B2
:1046100045F61643984210B50C461BD101F066F9D9
:10462000A2780D4B72B100F0AA00002815BF01223C
:104630000022352029201A7001F028F901F0C2F972
:10464000002010BD1B78002B14BF3520292001F05D
:1046500025F9F3E70120F4E7D61D0020014B18608F
:10466000704700BFD81D0020024B186808B10368CE
:1046700018477047D81D0020F8B5194B1B68054630
:10468000002B2BD0174A127842B1174A92F900201A
:10469000002ABFBF0278427005220270134C5B688B
:1046A000284698472378580718D5D90702D51048C7
:1046B00001F0E4FE0F4F00262378DA0703D5A95D49
:1046C000384601F0DBFE0136082EF5D12378DB07F2
:1046D00004D50948BDE8F84001F0D0BEF8BD00BFE0
:1046E000D81D002030100020941E00208D1E0020B8
:1046F0007CC500088EC50008D2C20008034B1B68A9
:104700001BB1022101709B6818477047D81D00201B
:10471000054B1988814205D01880044B1B680BB1EA
:10472000DB681847704700BFDE1D0020D81D002041
:10473000054B1988814205D01880044B1B680BB1CA
:104740001B691847704700BFDC1D0020D81D0020E2
:104750007047704708B5FFF7FCFF08BD08B5FCF7C8
:10476000C7FD08BD08B5FFF7F3FFFFF7F3FF08BD6E
:104770000120704708B5FFF7FBFF08BD08B501F041
:104780005DFBFDF799F901F0BFFEFFF745FAFFF772
:104790008DFCFFF731FDFFF7E1FF08BD38B50E4C8A
:1047A00023780546580711D5D9070FD50B4801F0D6
:1047B00065FE2378DA0709D52946094801F05EFE2F
:1047C0002378DB0702D5074801F058FE2846BDE8EC
:1047D0003840FCF7EABE00BF8D1E002094C50008DB
:1047E000D9BD0008D2C200082DE9F04F85B0FDF711
:1047F000A3F9FFF7BFFF002851D0DFF8D4A0DFF8FE
:10480000D490002557465FFA85F84046FDF71CF91D
:104810001AF8016B864283463ED099F800309B0718
:1048200001D5FDF717F90023012486EA0B0634426F
:10483000DAB22CD01BEA040F14BF012300238DF839
:1048400000208DF802308DF8018001F019FB40F056
:1048500001006B46ADF8040093E8030000F03CF85B
:104860007B5D5C407C55194CFFF784FAFFF73CFCFC
:1048700002F054F9FFF7F8FE2378834222D0FFF7C5
:10488000F3FE207005B0BDE8F04FFFF787BF01339E
:104890006400062BE4B2CAD101350A2DB3D14FF61C
:1048A000FF73ADF8083000238DF80A3001F0E8FA04
:1048B00040F00100ADF80C0004AB13E9030000F078
:1048C0000BF8D0E705B0BDE8F08F00BFE01D002079
:1048D000E11D00208D1E002084B06B4683E803009C
:1048E0000022ADF80E2093E8030004AB0290ADF86F
:1048F0000C1013E9030004B000F0D8BD008800F0EC
:1049000095BF000010B5044600287AD0822813D144
:10491000FFF7AAFE810774D4392000F0B7FF01F039
:1049200051F842F2107003F0D0FD392000F0B6FFCC
:10493000BDE8104001F046B883280ED1FFF794FE81
:10494000C2075ED4532000F0A1FF01F03BF842F211
:10495000107003F0BAFD5320E8E784280ED1FFF76A
:1049600083FE43074DD4472000F090FF01F02AF862
:1049700042F2107003F0A9FD4720D7E7031FDBB216
:10498000A02B12D802F0B4FC00283AD11D4B2146CE
:10499000186801F039F920B1204600F07FFF01F0DE
:1049A00011F8204600F072FFC2E700F12003DBB2ED
:1049B000072B07D800F007040120A040C0B200F088
:1049C0009BFFB5E700F15B03DBB2022B05D80E4A73
:1049D000BDE81040D05CFFF79BBE00F15803DBB28E
:1049E000162B06D8094ABDE8104032F81300FFF72D
:1049F0009FBEEF2805D901F021FFBDE8104002F06D
:104A000019B810BDD00E0020A7C50008AAC500081F
:104A100008B5002858D082280FD1FFF725FE81075E
:104A200052D5392000F032FF00F0CCFF392000F0E1
:104A300035FFBDE8084000F0C5BF83280AD1FFF765
:104A400013FEC20740D5532000F020FF00F0BAFF4C
:104A50005320ECE784280AD1FFF706FE430733D53D
:104A6000472000F013FF00F0ADFF4720DFE7021FF3
:104A7000D2B2A02ADBD900F12002D2B2072A07D88D
:104A800000F0070301209840C0B200F03DFFD0E7DE
:104A900000F15B02D2B2022A04D80020BDE808402F
:104AA000FFF736BE00F15802D2B2162A04D8002011
:104AB000BDE80840FFF73CBEEF2805D901F032FF02
:104AC000BDE8084001F0B6BF08BD10B50446FFF7C9
:104AD00019FF392C0CBF4FF4FA50012003F0F5FCFC
:104AE0002046BDE81040FFF793BF08B528B100F09D
:104AF00003FFBDE8084000F065BF08BD08B528B158
:104B000000F002FFBDE8084000F05CBF08BD2DE9E1
:104B1000F04790F80690857807460C464FEA191939
:104B20000DB100F00FFF00F0D7FE8046A0B14DB3ED
:104B3000C4F3072303F0F003402B04D004F1200357
:104B4000DBB2072B1ED9022000F082FF00F0C4FE6A
:104B500080F001005FFA80F8C4F303330F2B45D8CF
:104B6000DFE813F01300130068006800C100D700ED
:104B700044004400E100380149014901A301440017
:104B80004400AC014FF00008E6E7C4F30723C4F388
:104B9000032613F0F00F18BF36015FFA84F9A5B1B0
:104BA00066B109F12003DBB2072B304602D9B9F117
:104BB000000F07D100F0A0FE00F004FF4846FFF709
:104BC000A1FE13E000F0AEFEF6E74846FFF720FF37
:104BD00066B109F12003DBB2072B304602D9B9F1E7
:104BE000000F24D100F090FE00F0ECFEC4F303347B
:104BF000083C032C03D8FFF737FDFCF7D6FCB8F1CF
:104C0000000F00F0628100F05FFE10F0010040F044
:104C10005C81B87000F050FE00F064FD384600F092
:104C200067F900F049FEBDE8F04700F065BD00F00F
:104C300081FED9E7C4F3072303F0F003C4F303268E
:104C4000202B5FFA84FA18BF3601BAF1000F0DD09D
:104C5000BAF1010F2CD0BDB3B9F1000F2CD0BB7944
:104C6000D9072FD56FF30713BB7125E09DB1B9F1BB
:104C7000000F06D100F082FE3043C0B2FFF735FFCF
:104C8000B4E7B9F1010FF5D100F078FE3043C0B2BE
:104C900000F080FEAAE7B9F1000F05D100F086FE12
:104CA0003046FFF72BFFA1E7B9F1010F9ED0F5E7E2
:104CB00025B1B9F1050F99D83046DFE7B9F1040FF6
:104CC00094D8EDE750467AE7B9F1000FE8D0BAF191
:104CD000390F0CBF4FF4FA50012003F0F6FB504699
:104CE000FFF796FE82E7C4F3812343B1012B7FF4E3
:104CF0007DAF65B1C4F30900FFF71AFD76E725B172
:104D0000C4F30900FFF704FD70E72846FAE72846D8
:104D1000F2E7E0B225B101F091FD01F08BFE65E70D
:104D200001F000FEF9E714F4407F25D1002D7FF457
:104D30005DAFE206C4F3421048BF0F254FEA800082
:104D400048BF854004F00F03C4F3812248BFED4300
:104D50008340022A45EA030008D00AD8012A02D07B
:104D600000F086FC42E700F07BFC3FE700F088FCA7
:104D70003CE700F072FC39E7C4F30122D3B2F5B18D
:104D800002F00103002B3FF431AFC4F34210830063
:104D900004F00F0000FA03F214F010001CBF0F2003
:104DA0009840C4F3812318BFC043022B40EA02009D
:104DB0000AD00CD8012B04D000F0BCFC16E75B082D
:104DC000E0E700F0AFFC11E700F0BCFC0EE700F0FC
:104DD00063FC0BE75FFA84F9C4F3032625B1304680
:104DE00000F080FC484649E74846FFF787FE30461A
:104DF00000F082FCFAE6E6B2A6F1F003042B3CD800
:104E0000DFE803F00310171C250045B1B9F1040FCA
:104E10003FF6ECAEC4F3042000F07AFCE6E6B9F10C
:104E2000050FF5E7C4F30420002DE1D000F05AFC93
:104E3000DCE6C4F30420002DF8D0D9E725B1C4F393
:104E4000042000F049FCD1E600F032FCCEE64DB182
:104E5000C4F30425284600F045FC0321284600F051
:104E6000DDFDC3E6012000F0F3FDB9F1010F7FF68F
:104E7000BDAE022000F0ECFDB8E63DB1B9F1000F87
:104E800001D030469BE6C4F30420CFE7B9F1000F10
:104E900008D0392E0CBF4FF4FA50012003F015FB57
:104EA00030461DE7C4F30420A2E7C4F30322E1B2B5
:104EB0003846FCF701FC00F065FB97E6C4F30322DB
:104EC000E1B23846FCF7FAFB90E6BDE8F08738B56A
:104ED00001880446807800F0B5FC054600F03AFCF5
:104EE00000F0BAFB29462046BDE83840FFF70FBE68
:104EF00013B583880288ADF804200446CBB1BDF811
:104F000004204FF6FF739A4213D0FCF777FB50B999
:104F100000F0E2FC68B1A3785BB1022002B0BDE80A
:104F2000104000F095BD2046FFF7D1FF2046FCF76A
:104F3000F5FA02B010BD08B500F004FD00F018FD50
:104F400000F040FD01F0ACFE01F074FD0020FFF721
:104F5000DFFB0020BDE80840FFF7EABB08B500F022
:104F6000A5FCBDE80840FFF7E6BF08B500F0D4FC9B
:104F7000BDE80840FFF7F2BFC0F303330E3303F080
:104F80000F020D2A10B522D8012101FA02F313F401
:104F9000105FC4B218D140F20332134203D113F0B0
:104FA00010000DD110BDF02C13D004D8E72C8CBF0D
:104FB00000200120F6E7F42C14BF00200120F1E7C7
:104FC000E72C06D9F12CF7E7C0F3C020EAE7002070
:104FD000E8E70846E6E707B5ADF80400019800F0F9
:104FE00025FC03B05DF804EBFFF7C6BF82B002AB4F
:104FF00003E9030002B0704782B002AB03E903008B
:1050000002B0704770B5094B094E1C78094D3378D2
:10501000A34200D170BD05EBC40355F834005968B4
:105020000134FFF7E9FF04F00704F0E7351E002024
:10503000341E0020F41D0020024B18685968FFF749
:10504000DBBF00BFEC1D0020224BF7B59A7912F0B0
:10505000F00F0AD19A7842B11F4A204F1278204EA1
:105060004FF6FF7C3978914201D103B0F0BD9888AA
:1050700058B319785C788DF804108DF80540BDF8A8
:105080000450654521D006EBC20595F801E0A64520
:105090001BD116F832408C4217D1A978A9B9A9883A
:1050A000091A89B2C72910D899790A48012262F3EE
:1050B00007119971AB7962F30713AB71FFF718FF12
:1050C00003B0BDE8F040FFF79DBF013202F00702D8
:1050D000C8E700BFEC1D0020351E0020341E002054
:1050E000F41D00202DE9F04FC44E8FB00446B18866
:1050F0000068089030882378627894F80280B4F8C9
:105100000490ADF8040096F800E096F801C035462A
:10511000002900F0098180B24FF6FF7B584500F06E
:105120000381B778002F00F0FF80A9EB0101B0796F
:1051300089B2C72900F0F00A00F2A480BAF1000F8A
:1051400058D18DF808E08DF809C0BDF80810594510
:10515000C2461CD08DF820308DF821203188BDF852
:1051600020C08C4513D1B8F1000F40F062810123BB
:1051700063F30710B071FFF75FFF3046FFF7B8FE2B
:10518000B379A371002738460FB0BDE8F08FB9F1AD
:10519000000F40F05281B8F1000FF3D0AB7943F02B
:1051A0000103AB71EEE700EBC10595F801C0944532
:1051B00006D110F831C09C4502D1AD78002DE1D167
:1051C000013101F007014CE110F4706F00D07BB1A8
:1051D0002033DBB2072B0BD92046FFF789FEBA46F6
:1051E00006E010F4706FF3D0A27912F0F00FEFD157
:1051F0005746C8E78DF80CE08DF80DC0BDF80C10CF
:10520000594516D08DF820308DF821203188BDF811
:1052100020C08C450DD1B8F1000F0AD1A0712046F5
:10522000FFF766FE2368336063687360FFF704FF6F
:10523000A9E78DF820308DF821200898FFF7CBFEE4
:10524000E0B1B8F1000F19D0AB791F2B0CD92A8827
:10525000ADF8282000228DF82A20ADF82C908DF88A
:105260002E300AA8FFF744FE23682B6063686B604A
:10527000FFF7EAFEFFF7E0FE012784E72046FFF78D
:1052800037FEF9E7BAF1000F16D18DF820308DF80E
:10529000212008AB8DF82280ADF8249093E803001C
:1052A000FFF7A4FE3046FFF723FEC6F800A0C6F8BD
:1052B00004A0FFF7C1FE9BE78DF810E08DF811C048
:1052C000BDF81010594514D08DF820308DF82120EC
:1052D0003188BDF820C08C450BD1B8F1000F08D142
:1052E000A0712046FFF704FEC6F80080C6F80480CF
:1052F00049E78DF820308DF821200898FFF76BFEE4
:105300000028BBD0B8F1000FB8D0AB791F2BABD9B8
:105310002A88ADF8302000228DF83220ADF8349084
:105320008DF836300CA89DE7002969D08DF814E07F
:105330008DF815C0BDF814604FF6FF7086425FD03F
:10534000AF78002F5CD1A9EB010189B2C72944D8FD
:105350004746002F92D08DF818E08DF819C0BDF89F
:105360001810814227D08DF820308DF8212029880F
:10537000BDF8200088421ED1AB79DA0716D413F0AD
:10538000F00F13D003F0F002F02A1CBFC3F3031296
:105390000132A3711CBF62F30713A3712046FFF70C
:1053A000A7FD23682B6063686B603FE723682B6071
:1053B00063686B60E7E68DF820308DF8212008984F
:1053C000FFF709FE00287FF44FAFAB79204643F08A
:1053D0000103AB71FFF78CFDD5E68DF820308DF819
:1053E0002280ADF824908DF8212008AB93E80300CB
:1053F000FFF7FCFD2F606F6018E700BFEC1D002079
:10540000B8F1000F3FF43AAF8DF820308DF821202D
:105410000898FFF7E0FD074600283FF42FAF236808
:105420002B6063681C486B60FFF768FAFFF70CFE9F
:10543000FCE6B9F1000F3FF4B1AE8DF81C308DF8E9
:105440001D20BDF81C004FF6FF7188423FF4A3AE4B
:10545000B8F1000F7FF4A2AE104811490678097820
:105460001048B1427FF49FAE8DF820308DF8212096
:10547000089800F0DBF9C0F30332C3B2032A3FF609
:10548000ABAE01A151F822F0C9510008C951000882
:10549000E3510008E3510008EC1D0020341E0020F9
:1054A000351E0020F41D0020C8207047F0B587B0DD
:1054B0006C4684E803002046FFF714FE2D4E2E4D67
:1054C000074688B1BDF80430BDF80020ADF81020C3
:1054D00043B192B24FF6FF739A4203D094E80300AF
:1054E000FFF78AFD254C3EE094E8030004AB83E817
:1054F0000300BDF80420BDF81010ADF80C10002A10
:10550000F0D089B24FF6FF729142EBD0347829780F
:10551000621C02F007028A420BD0184F327003CB94
:1055200007EBC40C47F83400CCF80410FFF76AFD11
:10553000D8E7FFF71AFD124B37702F701F605F60BE
:10554000D0E704EBC000FFF7CDFD80B12B7804EB72
:10555000C30254F833005168FFF74EFD2B78013336
:1055600003F007032B70287833788342E9D107B022
:10557000F0BD00BF341E0020351E0020F41D0020A9
:10558000EC1D0020F8B5034660B1002501261C463D
:1055900014F8010B732806D8042828D201280FD04C
:1055A000022827D0F8BD75283DD032D300F17C0306
:1055B000DBB26F2BF6D800F07F00FFF729FA0EE080
:1055C0009C1C5B7803F12002D2B2072A0ED803F0AC
:1055D00007039840C0B200F0BBF900F0F3F92F4682
:1055E000013FFFB2FF2F21D12346D0E71846FFF736
:1055F00089F9F4E758789C1C00F12003DBB2072BF3
:10560000DBD800F0070006FA00F0C0B200F0A8F9FD
:10561000E3E75F789C1C013FFFB2FF2FDFD06420DF
:1056200002F053FFF7E79C1C5D78D8E7642002F096
:105630004CFFD5E7704708B5FFF7FCFF08BD000039
:1056400008B5FFF7F8FF034B1860BDE80840FFF707
:1056500072BC00BF381E00207047FFF7F1BF00008A
:10566000024B1B681843FFF7EBBF00BF381E00203A
:10567000024B1B681840FFF7E3BF00BF381E002035
:10568000024B1B685840FFF7DBBF00BF381E0020ED
:1056900008B5FBF7E9FE08BD08B5FFF7F9FF034BB6
:1056A0001860BDE80840FFF746BC00BF3C1E002064
:1056B0000020FFF7F1BF18B9B1FA81F04009704737
:1056C000C84000F001007047024B01461868FFF720
:1056D000F2BF00BF3C1E0020012303FA00F0FFF7D9
:1056E000DBBF0000012303FA00F0024B1B681843E4
:1056F000FFF7D2BF3C1E0020012303FA00F0034B4A
:105700001B6823EA0000FFF7C7BF00BF3C1E002054
:10571000012303FA00F0024B1B685840FFF7BCBF9F
:105720003C1E0020024B1B681843FFF7B5BF00BFAB
:105730003C1E0020024B1B681840FFF7ADBF00BFA6
:105740003C1E0020024B1B685840FFF7A5BF00BF5E
:105750003C1E002070470000C0F3072303EB430307
:1057600037B500EB430000F0FF0000F00703012213
:105770009A40C0080A4B00EB8000D2B218440024C3
:10578000057821FA04F343F300036B40134001341E
:105790006B40052C00F8013BF2D103B030BD00BFD7
:1057A000401E0020C0F3072303EB430313B500EBB7
:1057B000430000F0FF0000F007040A49C00800EBB6
:1057C000800000220144104611F8013BE34003F041
:1057D0000103934001321843052AC0B2F4D102B04C
:1057E00010BD00BF401E00200E4B73B51E680E4B4F
:1057F000ADF804001B681F241E4326FA04F3DB07E0
:10580000E5B206D414F1FF34F7D20025284602B0E1
:1058100070BD01992846FBF76BFF80B20128F1D0DB
:10582000F4E700BF3C1E0020381E002007B5ADF88D
:1058300004000198FFF7D8FF019903B05DF804EB6D
:10584000FBF756BF13B5104BADF804101B782BB106
:10585000019802B0BDE81040FFF7E8BF70B10198B1
:10586000FFF7C2FF044601460198FFF775FF019953
:10587000204602B0BDE81040FBF73ABF0198FFF7A1
:1058800091FF0446F3E700BFEB1D0020024B0146E9
:10589000186800F039BA00BFD00E0020024B014654
:1058A000186800F04BBA00BFD00E0020014B1868FA
:1058B00000F05EBAD00E0020024B93F90000C0F356
:1058C000C7007047891E0020024B187800F00700BF
:1058D000704700BF891E0020034B187810F00700A6
:1058E00018BF0120704700BF891E0020014B1878A7
:1058F000704700BF8B1E0020024A137818431070B7
:10590000704700BF8B1E0020024A137823EA000074
:10591000107070478B1E0020014B00221A707047D8
:105920008B1E0020024A137818431070704700BF86
:105930008C1E0020024A137823EA00001070704782
:105940008C1E0020014B00221A7070478C1E002014
:10595000024A137818431070704700BF881E002059
:10596000024A137823EA000010707047881E002056
:10597000014B00221A707047881E0020014B1878D6
:10598000704700BF8A1E0020704708B5FFF7FCFF74
:1059900008BD000008B5044B1978814202D0187088
:1059A000FFF7F3FF08BD00BF8A1E002008B5044BB7
:1059B0001A781AB100201870FFF7E7FF08BD00BF82
:1059C0008A1E002010B50D4B0D491B7809780D4C2F
:1059D0000B430D49206809780B430C490370097883
:1059E00031B10B43037000F0F1F808B1FFF7DEFFAF
:1059F0002068BDE81040FEF73FBE00BF8B1E0020B0
:105A00008C1E0020D00E0020881E00208A1E002040
:105A1000704708B5FFF7FCFF08BD000010B5064C45
:105A200041EAC0012170FFF75DFE94F90000C0F368
:105A3000C700FFF7EEFF10BD891E002008B5034B1D
:105A400000201870FFF7E5FF08BD00BF891E002089
:105A500008B50A4A92F9003023EA000040B21070FB
:105A600042070AD1DBB2834207D0C0F3C700FFF779
:105A700043FEBDE80840FFF7E1BF08BD891E0020D6
:105A8000030943EA0010C0B28300801000F0330025
:105A900003F0CC03034358005B1003F0550300F000
:105AA000AA001843704708B50020FDF762F94FF6C9
:105AB000EC63C31A5842584108BD0220FDF74EB9A5
:105AC00001460220FDF752B90320FDF747B9014610
:105AD0000320FDF74BB910B50420FDF73FF904464C
